{
    "_format": "hh-sol-artifact-1",
    "contractName": "WavePortal",
    "sourceName": "contracts/WavePortal.sol",
    "abi": [
        {
            "inputs": [],
            "stateMutability": "nonpayable",
            "type": "constructor"
        },
        {
            "inputs": [
                {
                    "internalType": "address",
                    "name": "",
                    "type": "address"
                }
            ],
            "name": "balances",
            "outputs": [
                {
                    "internalType": "uint256",
                    "name": "",
                    "type": "uint256"
                }
            ],
            "stateMutability": "view",
            "type": "function"
        },
        {
            "inputs": [],
            "name": "getTotalWaves",
            "outputs": [
                {
                    "internalType": "uint256",
                    "name": "",
                    "type": "uint256"
                }
            ],
            "stateMutability": "view",
            "type": "function"
        },
        {
            "inputs": [],
            "name": "wave",
            "outputs": [],
            "stateMutability": "nonpayable",
            "type": "function"
        }
    ],
    "bytecode": "0x608060405234801561001057600080fd5b5061003c6040518060600160405280602581526020016107c86025913961004160201b61015b1760201c565b6101c4565b6100dd816040516024016100559190610142565b6040516020818303038152906040527f41304fac000000000000000000000000000000000000000000000000000000007bffffffffffffffffffffffffffffffffffffffffffffffffffffffff19166020820180517bffffffffffffffffffffffffffffffffffffffffffffffffffffffff83818316178352505050506100e060201b60201c565b50565b60008151905060006a636f6e736f6c652e6c6f679050602083016000808483855afa5050505050565b600061011482610164565b61011e818561016f565b935061012e818560208601610180565b610137816101b3565b840191505092915050565b6000602082019050818103600083015261015c8184610109565b905092915050565b600081519050919050565b600082825260208201905092915050565b60005b8381101561019e578082015181840152602081019050610183565b838111156101ad576000848401525b50505050565b6000601f19601f8301169050919050565b6105f5806101d36000396000f3fe608060405234801561001057600080fd5b50600436106100415760003560e01c806327e235e3146100465780636fe15b44146100765780639a2cdc0814610080575b600080fd5b610060600480360381019061005b919061036a565b61009e565b60405161006d919061046c565b60405180910390f35b61007e6100b6565b005b610088610110565b604051610095919061046c565b60405180910390f35b60016020528060005260406000206000915090505481565b60016000808282546100c891906104a3565b9250508190555061010e6040518060400160405280600d81526020017f2573206861732077617665642100000000000000000000000000000000000000815250336101f4565b565b60006101536040518060400160405280601781526020017f5765206861766520256420746f74616c20776176657321000000000000000000815250600054610290565b600054905090565b6101f18160405160240161016f91906103ea565b6040516020818303038152906040527f41304fac000000000000000000000000000000000000000000000000000000007bffffffffffffffffffffffffffffffffffffffffffffffffffffffff19166020820180517bffffffffffffffffffffffffffffffffffffffffffffffffffffffff838183161783525050505061032c565b50565b61028c828260405160240161020a92919061040c565b6040516020818303038152906040527f319af333000000000000000000000000000000000000000000000000000000007bffffffffffffffffffffffffffffffffffffffffffffffffffffffff19166020820180517bffffffffffffffffffffffffffffffffffffffffffffffffffffffff838183161783525050505061032c565b5050565b61032882826040516024016102a692919061043c565b6040516020818303038152906040527f9710a9d0000000000000000000000000000000000000000000000000000000007bffffffffffffffffffffffffffffffffffffffffffffffffffffffff19166020820180517bffffffffffffffffffffffffffffffffffffffffffffffffffffffff838183161783525050505061032c565b5050565b60008151905060006a636f6e736f6c652e6c6f679050602083016000808483855afa5050505050565b600081359050610364816105a8565b92915050565b60006020828403121561037c57600080fd5b600061038a84828501610355565b91505092915050565b61039c816104f9565b82525050565b60006103ad82610487565b6103b78185610492565b93506103c7818560208601610535565b6103d081610597565b840191505092915050565b6103e48161052b565b82525050565b6000602082019050818103600083015261040481846103a2565b905092915050565b6000604082019050818103600083015261042681856103a2565b90506104356020830184610393565b9392505050565b6000604082019050818103600083015261045681856103a2565b905061046560208301846103db565b9392505050565b600060208201905061048160008301846103db565b92915050565b600081519050919050565b600082825260208201905092915050565b60006104ae8261052b565b91506104b98361052b565b9250827fffffffffffffffffffffffffffffffffffffffffffffffffffffffffffffffff038211156104ee576104ed610568565b5b828201905092915050565b60006105048261050b565b9050919050565b600073ffffffffffffffffffffffffffffffffffffffff82169050919050565b6000819050919050565b60005b83811015610553578082015181840152602081019050610538565b83811115610562576000848401525b50505050565b7f4e487b7100000000000000000000000000000000000000000000000000000000600052601160045260246000fd5b6000601f19601f8301169050919050565b6105b1816104f9565b81146105bc57600080fd5b5056fea2646970667358221220eee8615e631af39bc1f45b4a7bf35d022877a5cb8843e7513b2b9fd4f213cd7764736f6c63430008040033596f20796f2c204920616d206120636f6e747261637420616e64204920616d20736d617274",
    "linkReferences": {},
    "deployedLinkReferences": {}
}